{
  "contracts/OwleeeTip.sol": {
    "OwleeeTip": {
      "abi": [
        {
          "anonymous": false,
          "inputs": [
            {
              "indexed": false,
              "internalType": "uint256",
              "name": "amount",
              "type": "uint256"
            },
            {
              "indexed": false,
              "internalType": "address",
              "name": "creator",
              "type": "address"
            }
          ],
          "name": "TipReceived",
          "type": "event"
        },
        {
          "inputs": [
            {
              "internalType": "address",
              "name": "_creator",
              "type": "address"
            }
          ],
          "name": "sendTip",
          "outputs": [],
          "stateMutability": "payable",
          "type": "function"
        },
        {
          "inputs": [],
          "name": "totalTip",
          "outputs": [
            {
              "internalType": "uint256",
              "name": "",
              "type": "uint256"
            }
          ],
          "stateMutability": "view",
          "type": "function"
        }
      ],
      "evm": {
        "bytecode": {
          "linkReferences": {},
          "object": "608060405234801561001057600080fd5b5061052e806100206000396000f3fe6080604052600436106100295760003560e01c8063561cb04a1461002e578063a4e81be014610059575b600080fd5b34801561003a57600080fd5b50610043610075565b604051610050919061023b565b60405180910390f35b610073600480360381019061006e91906102b9565b61007b565b005b60005481565b600034116100be576040517f08c379a00000000000000000000000000000000000000000000000000000000081526004016100b590610343565b60405180910390fd5b343373ffffffffffffffffffffffffffffffffffffffff16311015610118576040517f08c379a000000000000000000000000000000000000000000000000000000000815260040161010f906103af565b60405180910390fd5b8073ffffffffffffffffffffffffffffffffffffffff163373ffffffffffffffffffffffffffffffffffffffff161415610187576040517f08c379a000000000000000000000000000000000000000000000000000000000815260040161017e9061041b565b60405180910390fd5b8073ffffffffffffffffffffffffffffffffffffffff166108fc349081150290604051600060405180830381858888f193505050501580156101cd573d6000803e3d6000fd5b50346000808282546101df919061046a565b925050819055507fc9744582970998c0a027dca0862cc1275bb99250a3a4665035c1a4b52acd691634826040516102179291906104cf565b60405180910390a150565b6000819050919050565b61023581610222565b82525050565b6000602082019050610250600083018461022c565b92915050565b600080fd5b600073ffffffffffffffffffffffffffffffffffffffff82169050919050565b60006102868261025b565b9050919050565b6102968161027b565b81146102a157600080fd5b50565b6000813590506102b38161028d565b92915050565b6000602082840312156102cf576102ce610256565b5b60006102dd848285016102a4565b91505092915050565b600082825260208201905092915050565b7f416d6f756e742073686f756c642062652067726561746572207468616e20302e600082015250565b600061032d6020836102e6565b9150610338826102f7565b602082019050919050565b6000602082019050818103600083015261035c81610320565b9050919050565b7f4e6f7420656e6f7567682062616c616e63650000000000000000000000000000600082015250565b60006103996012836102e6565b91506103a482610363565b602082019050919050565b600060208201905081810360008301526103c88161038c565b9050919050565b7f43726561746f722063616e206e6f7420636f6e74726962757465000000000000600082015250565b6000610405601a836102e6565b9150610410826103cf565b602082019050919050565b60006020820190508181036000830152610434816103f8565b9050919050565b7f4e487b7100000000000000000000000000000000000000000000000000000000600052601160045260246000fd5b600061047582610222565b915061048083610222565b9250827fffffffffffffffffffffffffffffffffffffffffffffffffffffffffffffffff038211156104b5576104b461043b565b5b828201905092915050565b6104c98161027b565b82525050565b60006040820190506104e4600083018561022c565b6104f160208301846104c0565b939250505056fea26469706673582212208aad6e8a6be6755d67986b91cb46014526f57724487f4f1697a1148c2ed193fc64736f6c634300080b0033",
          "opcodes": "PUSH1 0x80 PUSH1 0x40 MSTORE CALLVALUE DUP1 ISZERO PUSH2 0x10 JUMPI PUSH1 0x0 DUP1 REVERT JUMPDEST POP PUSH2 0x52E DUP1 PUSH2 0x20 PUSH1 0x0 CODECOPY PUSH1 0x0 RETURN INVALID PUSH1 0x80 PUSH1 0x40 MSTORE PUSH1 0x4 CALLDATASIZE LT PUSH2 0x29 JUMPI PUSH1 0x0 CALLDATALOAD PUSH1 0xE0 SHR DUP1 PUSH4 0x561CB04A EQ PUSH2 0x2E JUMPI DUP1 PUSH4 0xA4E81BE0 EQ PUSH2 0x59 JUMPI JUMPDEST PUSH1 0x0 DUP1 REVERT JUMPDEST CALLVALUE DUP1 ISZERO PUSH2 0x3A JUMPI PUSH1 0x0 DUP1 REVERT JUMPDEST POP PUSH2 0x43 PUSH2 0x75 JUMP JUMPDEST PUSH1 0x40 MLOAD PUSH2 0x50 SWAP2 SWAP1 PUSH2 0x23B JUMP JUMPDEST PUSH1 0x40 MLOAD DUP1 SWAP2 SUB SWAP1 RETURN JUMPDEST PUSH2 0x73 PUSH1 0x4 DUP1 CALLDATASIZE SUB DUP2 ADD SWAP1 PUSH2 0x6E SWAP2 SWAP1 PUSH2 0x2B9 JUMP JUMPDEST PUSH2 0x7B JUMP JUMPDEST STOP JUMPDEST PUSH1 0x0 SLOAD DUP2 JUMP JUMPDEST PUSH1 0x0 CALLVALUE GT PUSH2 0xBE JUMPI PUSH1 0x40 MLOAD PUSH32 0x8C379A000000000000000000000000000000000000000000000000000000000 DUP2 MSTORE PUSH1 0x4 ADD PUSH2 0xB5 SWAP1 PUSH2 0x343 JUMP JUMPDEST PUSH1 0x40 MLOAD DUP1 SWAP2 SUB SWAP1 REVERT JUMPDEST CALLVALUE CALLER PUSH20 0xFFFFFFFFFFFFFFFFFFFFFFFFFFFFFFFFFFFFFFFF AND BALANCE LT ISZERO PUSH2 0x118 JUMPI PUSH1 0x40 MLOAD PUSH32 0x8C379A000000000000000000000000000000000000000000000000000000000 DUP2 MSTORE PUSH1 0x4 ADD PUSH2 0x10F SWAP1 PUSH2 0x3AF JUMP JUMPDEST PUSH1 0x40 MLOAD DUP1 SWAP2 SUB SWAP1 REVERT JUMPDEST DUP1 PUSH20 0xFFFFFFFFFFFFFFFFFFFFFFFFFFFFFFFFFFFFFFFF AND CALLER PUSH20 0xFFFFFFFFFFFFFFFFFFFFFFFFFFFFFFFFFFFFFFFF AND EQ ISZERO PUSH2 0x187 JUMPI PUSH1 0x40 MLOAD PUSH32 0x8C379A000000000000000000000000000000000000000000000000000000000 DUP2 MSTORE PUSH1 0x4 ADD PUSH2 0x17E SWAP1 PUSH2 0x41B JUMP JUMPDEST PUSH1 0x40 MLOAD DUP1 SWAP2 SUB SWAP1 REVERT JUMPDEST DUP1 PUSH20 0xFFFFFFFFFFFFFFFFFFFFFFFFFFFFFFFFFFFFFFFF AND PUSH2 0x8FC CALLVALUE SWAP1 DUP2 ISZERO MUL SWAP1 PUSH1 0x40 MLOAD PUSH1 0x0 PUSH1 0x40 MLOAD DUP1 DUP4 SUB DUP2 DUP6 DUP9 DUP9 CALL SWAP4 POP POP POP POP ISZERO DUP1 ISZERO PUSH2 0x1CD JUMPI RETURNDATASIZE PUSH1 0x0 DUP1 RETURNDATACOPY RETURNDATASIZE PUSH1 0x0 REVERT JUMPDEST POP CALLVALUE PUSH1 0x0 DUP1 DUP3 DUP3 SLOAD PUSH2 0x1DF SWAP2 SWAP1 PUSH2 0x46A JUMP JUMPDEST SWAP3 POP POP DUP2 SWAP1 SSTORE POP PUSH32 0xC9744582970998C0A027DCA0862CC1275BB99250A3A4665035C1A4B52ACD6916 CALLVALUE DUP3 PUSH1 0x40 MLOAD PUSH2 0x217 SWAP3 SWAP2 SWAP1 PUSH2 0x4CF JUMP JUMPDEST PUSH1 0x40 MLOAD DUP1 SWAP2 SUB SWAP1 LOG1 POP JUMP JUMPDEST PUSH1 0x0 DUP2 SWAP1 POP SWAP2 SWAP1 POP JUMP JUMPDEST PUSH2 0x235 DUP2 PUSH2 0x222 JUMP JUMPDEST DUP3 MSTORE POP POP JUMP JUMPDEST PUSH1 0x0 PUSH1 0x20 DUP3 ADD SWAP1 POP PUSH2 0x250 PUSH1 0x0 DUP4 ADD DUP5 PUSH2 0x22C JUMP JUMPDEST SWAP3 SWAP2 POP POP JUMP JUMPDEST PUSH1 0x0 DUP1 REVERT JUMPDEST PUSH1 0x0 PUSH20 0xFFFFFFFFFFFFFFFFFFFFFFFFFFFFFFFFFFFFFFFF DUP3 AND SWAP1 POP SWAP2 SWAP1 POP JUMP JUMPDEST PUSH1 0x0 PUSH2 0x286 DUP3 PUSH2 0x25B JUMP JUMPDEST SWAP1 POP SWAP2 SWAP1 POP JUMP JUMPDEST PUSH2 0x296 DUP2 PUSH2 0x27B JUMP JUMPDEST DUP2 EQ PUSH2 0x2A1 JUMPI PUSH1 0x0 DUP1 REVERT JUMPDEST POP JUMP JUMPDEST PUSH1 0x0 DUP2 CALLDATALOAD SWAP1 POP PUSH2 0x2B3 DUP2 PUSH2 0x28D JUMP JUMPDEST SWAP3 SWAP2 POP POP JUMP JUMPDEST PUSH1 0x0 PUSH1 0x20 DUP3 DUP5 SUB SLT ISZERO PUSH2 0x2CF JUMPI PUSH2 0x2CE PUSH2 0x256 JUMP JUMPDEST JUMPDEST PUSH1 0x0 PUSH2 0x2DD DUP5 DUP3 DUP6 ADD PUSH2 0x2A4 JUMP JUMPDEST SWAP2 POP POP SWAP3 SWAP2 POP POP JUMP JUMPDEST PUSH1 0x0 DUP3 DUP3 MSTORE PUSH1 0x20 DUP3 ADD SWAP1 POP SWAP3 SWAP2 POP POP JUMP JUMPDEST PUSH32 0x416D6F756E742073686F756C642062652067726561746572207468616E20302E PUSH1 0x0 DUP3 ADD MSTORE POP JUMP JUMPDEST PUSH1 0x0 PUSH2 0x32D PUSH1 0x20 DUP4 PUSH2 0x2E6 JUMP JUMPDEST SWAP2 POP PUSH2 0x338 DUP3 PUSH2 0x2F7 JUMP JUMPDEST PUSH1 0x20 DUP3 ADD SWAP1 POP SWAP2 SWAP1 POP JUMP JUMPDEST PUSH1 0x0 PUSH1 0x20 DUP3 ADD SWAP1 POP DUP2 DUP2 SUB PUSH1 0x0 DUP4 ADD MSTORE PUSH2 0x35C DUP2 PUSH2 0x320 JUMP JUMPDEST SWAP1 POP SWAP2 SWAP1 POP JUMP JUMPDEST PUSH32 0x4E6F7420656E6F7567682062616C616E63650000000000000000000000000000 PUSH1 0x0 DUP3 ADD MSTORE POP JUMP JUMPDEST PUSH1 0x0 PUSH2 0x399 PUSH1 0x12 DUP4 PUSH2 0x2E6 JUMP JUMPDEST SWAP2 POP PUSH2 0x3A4 DUP3 PUSH2 0x363 JUMP JUMPDEST PUSH1 0x20 DUP3 ADD SWAP1 POP SWAP2 SWAP1 POP JUMP JUMPDEST PUSH1 0x0 PUSH1 0x20 DUP3 ADD SWAP1 POP DUP2 DUP2 SUB PUSH1 0x0 DUP4 ADD MSTORE PUSH2 0x3C8 DUP2 PUSH2 0x38C JUMP JUMPDEST SWAP1 POP SWAP2 SWAP1 POP JUMP JUMPDEST PUSH32 0x43726561746F722063616E206E6F7420636F6E74726962757465000000000000 PUSH1 0x0 DUP3 ADD MSTORE POP JUMP JUMPDEST PUSH1 0x0 PUSH2 0x405 PUSH1 0x1A DUP4 PUSH2 0x2E6 JUMP JUMPDEST SWAP2 POP PUSH2 0x410 DUP3 PUSH2 0x3CF JUMP JUMPDEST PUSH1 0x20 DUP3 ADD SWAP1 POP SWAP2 SWAP1 POP JUMP JUMPDEST PUSH1 0x0 PUSH1 0x20 DUP3 ADD SWAP1 POP DUP2 DUP2 SUB PUSH1 0x0 DUP4 ADD MSTORE PUSH2 0x434 DUP2 PUSH2 0x3F8 JUMP JUMPDEST SWAP1 POP SWAP2 SWAP1 POP JUMP JUMPDEST PUSH32 0x4E487B7100000000000000000000000000000000000000000000000000000000 PUSH1 0x0 MSTORE PUSH1 0x11 PUSH1 0x4 MSTORE PUSH1 0x24 PUSH1 0x0 REVERT JUMPDEST PUSH1 0x0 PUSH2 0x475 DUP3 PUSH2 0x222 JUMP JUMPDEST SWAP2 POP PUSH2 0x480 DUP4 PUSH2 0x222 JUMP JUMPDEST SWAP3 POP DUP3 PUSH32 0xFFFFFFFFFFFFFFFFFFFFFFFFFFFFFFFFFFFFFFFFFFFFFFFFFFFFFFFFFFFFFFFF SUB DUP3 GT ISZERO PUSH2 0x4B5 JUMPI PUSH2 0x4B4 PUSH2 0x43B JUMP JUMPDEST JUMPDEST DUP3 DUP3 ADD SWAP1 POP SWAP3 SWAP2 POP POP JUMP JUMPDEST PUSH2 0x4C9 DUP2 PUSH2 0x27B JUMP JUMPDEST DUP3 MSTORE POP POP JUMP JUMPDEST PUSH1 0x0 PUSH1 0x40 DUP3 ADD SWAP1 POP PUSH2 0x4E4 PUSH1 0x0 DUP4 ADD DUP6 PUSH2 0x22C JUMP JUMPDEST PUSH2 0x4F1 PUSH1 0x20 DUP4 ADD DUP5 PUSH2 0x4C0 JUMP JUMPDEST SWAP4 SWAP3 POP POP POP JUMP INVALID LOG2 PUSH5 0x6970667358 0x22 SLT KECCAK256 DUP11 0xAD PUSH15 0x8A6BE6755D67986B91CB46014526F5 PUSH24 0x24487F4F1697A1148C2ED193FC64736F6C634300080B0033 "
        },
        "methodIdentifiers": {
          "sendTip(address)": "a4e81be0",
          "totalTip()": "561cb04a"
        }
      }
    }
  }
}