{
  "_format": "hh-sol-artifact-1",
  "contractName": "OwleeeLock",
  "sourceName": "contracts/OwleeeLock.sol",
  "abi": [
    {
      "inputs": [],
      "stateMutability": "nonpayable",
      "type": "constructor"
    },
    {
      "anonymous": false,
      "inputs": [
        {
          "indexed": false,
          "internalType": "uint256",
          "name": "id",
          "type": "uint256"
        },
        {
          "indexed": false,
          "internalType": "address",
          "name": "userLockAddress",
          "type": "address"
        },
        {
          "indexed": false,
          "internalType": "address",
          "name": "user",
          "type": "address"
        }
      ],
      "name": "LockAddressUploaded",
      "type": "event"
    },
    {
      "inputs": [],
      "name": "fetchUserLockAddress",
      "outputs": [
        {
          "components": [
            {
              "internalType": "uint256",
              "name": "id",
              "type": "uint256"
            },
            {
              "internalType": "address",
              "name": "userLockAddress",
              "type": "address"
            },
            {
              "internalType": "address",
              "name": "user",
              "type": "address"
            }
          ],
          "internalType": "struct OwleeeLock.Lock[]",
          "name": "",
          "type": "tuple[]"
        }
      ],
      "stateMutability": "view",
      "type": "function"
    },
    {
      "inputs": [],
      "name": "fetchUserProfileHash",
      "outputs": [
        {
          "internalType": "string",
          "name": "",
          "type": "string"
        }
      ],
      "stateMutability": "view",
      "type": "function"
    },
    {
      "inputs": [
        {
          "internalType": "address",
          "name": "_lockAddress",
          "type": "address"
        }
      ],
      "name": "uploadLockAddress",
      "outputs": [],
      "stateMutability": "nonpayable",
      "type": "function"
    },
    {
      "inputs": [
        {
          "internalType": "string",
          "name": "_userHash",
          "type": "string"
        }
      ],
      "name": "uploadUserHash",
      "outputs": [],
      "stateMutability": "nonpayable",
      "type": "function"
    }
  ],
  "bytecode": "0x608060405234801561001057600080fd5b50600160008190555033600260006101000a81548173ffffffffffffffffffffffffffffffffffffffff021916908373ffffffffffffffffffffffffffffffffffffffff16021790555061116a806100696000396000f3fe608060405234801561001057600080fd5b506004361061004c5760003560e01c806301b07b9d146100515780631162fe0c1461006d578063c7c26bc014610089578063efe375cf146100a7575b600080fd5b61006b60048036038101906100669190610aac565b6100c5565b005b61008760048036038101906100829190610b53565b6101b6565b005b610091610438565b60405161009e9190610c99565b60405180910390f35b6100af610716565b6040516100bc9190610d43565b60405180910390f35b6002600054141561010b576040517f08c379a000000000000000000000000000000000000000000000000000000000815260040161010290610db1565b60405180910390fd5b60026000819055506000815111610157576040517f08c379a000000000000000000000000000000000000000000000000000000000815260040161014e90610e1d565b60405180910390fd5b80600360003373ffffffffffffffffffffffffffffffffffffffff1673ffffffffffffffffffffffffffffffffffffffff16815260200190815260200160002090805190602001906101aa929190610862565b50600160008190555050565b600260005414156101fc576040517f08c379a00000000000000000000000000000000000000000000000000000000081526004016101f390610db1565b60405180910390fd5b6002600081905550600073ffffffffffffffffffffffffffffffffffffffff163373ffffffffffffffffffffffffffffffffffffffff161415610274576040517f08c379a000000000000000000000000000000000000000000000000000000000815260040161026b90610e89565b60405180910390fd5b600073ffffffffffffffffffffffffffffffffffffffff168173ffffffffffffffffffffffffffffffffffffffff1614156102e4576040517f08c379a00000000000000000000000000000000000000000000000000000000081526004016102db90610ef5565b60405180910390fd5b6102ee60016107e5565b60006102fa60016107fb565b905060405180606001604052808281526020018373ffffffffffffffffffffffffffffffffffffffff1681526020013373ffffffffffffffffffffffffffffffffffffffff16815250600460008381526020019081526020016000206000820151816000015560208201518160010160006101000a81548173ffffffffffffffffffffffffffffffffffffffff021916908373ffffffffffffffffffffffffffffffffffffffff16021790555060408201518160020160006101000a81548173ffffffffffffffffffffffffffffffffffffffff021916908373ffffffffffffffffffffffffffffffffffffffff1602179055509050507fb6e9ddc2ba8258682764e913aaea952070bffc2ac47fb570674ab13a713bf65081833360405161042493929190610f33565b60405180910390a150600160008190555050565b6060600061044660016107fb565b905060008060005b838110156104f6573373ffffffffffffffffffffffffffffffffffffffff166004600061048560018561080990919063ffffffff16565b815260200190815260200160002060020160009054906101000a900473ffffffffffffffffffffffffffffffffffffffff1673ffffffffffffffffffffffffffffffffffffffff1614156104e3576001836104e09190610f99565b92505b80806104ee90610fef565b91505061044e565b5060008267ffffffffffffffff81111561051357610512610981565b5b60405190808252806020026020018201604052801561054c57816020015b6105396108e8565b8152602001906001900390816105315790505b50905060005b8481101561070b573373ffffffffffffffffffffffffffffffffffffffff166004600061058960018561080990919063ffffffff16565b815260200190815260200160002060020160009054906101000a900473ffffffffffffffffffffffffffffffffffffffff1673ffffffffffffffffffffffffffffffffffffffff1614156106f85760006105ed60018361080990919063ffffffff16565b9050600060046000838152602001908152602001600020905080604051806060016040529081600082015481526020016001820160009054906101000a900473ffffffffffffffffffffffffffffffffffffffff1673ffffffffffffffffffffffffffffffffffffffff1673ffffffffffffffffffffffffffffffffffffffff1681526020016002820160009054906101000a900473ffffffffffffffffffffffffffffffffffffffff1673ffffffffffffffffffffffffffffffffffffffff1673ffffffffffffffffffffffffffffffffffffffff16815250508486815181106106db576106da611038565b5b60200260200101819052506001856106f39190610f99565b945050505b808061070390610fef565b915050610552565b508094505050505090565b6060600360003373ffffffffffffffffffffffffffffffffffffffff1673ffffffffffffffffffffffffffffffffffffffff168152602001908152602001600020805461076290611096565b80601f016020809104026020016040519081016040528092919081815260200182805461078e90611096565b80156107db5780601f106107b0576101008083540402835291602001916107db565b820191906000526020600020905b8154815290600101906020018083116107be57829003601f168201915b5050505050905090565b6001816000016000828254019250508190555050565b600081600001549050919050565b60008282846108189190610f99565b915081101561085c576040517f08c379a000000000000000000000000000000000000000000000000000000000815260040161085390611114565b60405180910390fd5b92915050565b82805461086e90611096565b90600052602060002090601f01602090048101928261089057600085556108d7565b82601f106108a957805160ff19168380011785556108d7565b828001600101855582156108d7579182015b828111156108d65782518255916020019190600101906108bb565b5b5090506108e49190610935565b5090565b604051806060016040528060008152602001600073ffffffffffffffffffffffffffffffffffffffff168152602001600073ffffffffffffffffffffffffffffffffffffffff1681525090565b5b8082111561094e576000816000905550600101610936565b5090565b6000604051905090565b600080fd5b600080fd5b600080fd5b600080fd5b6000601f19601f8301169050919050565b7f4e487b7100000000000000000000000000000000000000000000000000000000600052604160045260246000fd5b6109b982610970565b810181811067ffffffffffffffff821117156109d8576109d7610981565b5b80604052505050565b60006109eb610952565b90506109f782826109b0565b919050565b600067ffffffffffffffff821115610a1757610a16610981565b5b610a2082610970565b9050602081019050919050565b82818337600083830152505050565b6000610a4f610a4a846109fc565b6109e1565b905082815260208101848484011115610a6b57610a6a61096b565b5b610a76848285610a2d565b509392505050565b600082601f830112610a9357610a92610966565b5b8135610aa3848260208601610a3c565b91505092915050565b600060208284031215610ac257610ac161095c565b5b600082013567ffffffffffffffff811115610ae057610adf610961565b5b610aec84828501610a7e565b91505092915050565b600073ffffffffffffffffffffffffffffffffffffffff82169050919050565b6000610b2082610af5565b9050919050565b610b3081610b15565b8114610b3b57600080fd5b50565b600081359050610b4d81610b27565b92915050565b600060208284031215610b6957610b6861095c565b5b6000610b7784828501610b3e565b91505092915050565b600081519050919050565b600082825260208201905092915050565b6000819050602082019050919050565b6000819050919050565b610bbf81610bac565b82525050565b610bce81610b15565b82525050565b606082016000820151610bea6000850182610bb6565b506020820151610bfd6020850182610bc5565b506040820151610c106040850182610bc5565b50505050565b6000610c228383610bd4565b60608301905092915050565b6000602082019050919050565b6000610c4682610b80565b610c508185610b8b565b9350610c5b83610b9c565b8060005b83811015610c8c578151610c738882610c16565b9750610c7e83610c2e565b925050600181019050610c5f565b5085935050505092915050565b60006020820190508181036000830152610cb38184610c3b565b905092915050565b600081519050919050565b600082825260208201905092915050565b60005b83811015610cf5578082015181840152602081019050610cda565b83811115610d04576000848401525b50505050565b6000610d1582610cbb565b610d1f8185610cc6565b9350610d2f818560208601610cd7565b610d3881610970565b840191505092915050565b60006020820190508181036000830152610d5d8184610d0a565b905092915050565b7f5265656e7472616e637947756172643a207265656e7472616e742063616c6c00600082015250565b6000610d9b601f83610cc6565b9150610da682610d65565b602082019050919050565b60006020820190508181036000830152610dca81610d8e565b9050919050565b7f557365722048617368206e6f7420666f756e6400000000000000000000000000600082015250565b6000610e07601383610cc6565b9150610e1282610dd1565b602082019050919050565b60006020820190508181036000830152610e3681610dfa565b9050919050565b7f53656e6465722041646472657373206e6f7420666f756e640000000000000000600082015250565b6000610e73601883610cc6565b9150610e7e82610e3d565b602082019050919050565b60006020820190508181036000830152610ea281610e66565b9050919050565b7f4c6f636b2041646472657373206e6f7420666f756e6400000000000000000000600082015250565b6000610edf601683610cc6565b9150610eea82610ea9565b602082019050919050565b60006020820190508181036000830152610f0e81610ed2565b9050919050565b610f1e81610bac565b82525050565b610f2d81610b15565b82525050565b6000606082019050610f486000830186610f15565b610f556020830185610f24565b610f626040830184610f24565b949350505050565b7f4e487b7100000000000000000000000000000000000000000000000000000000600052601160045260246000fd5b6000610fa482610bac565b9150610faf83610bac565b9250827fffffffffffffffffffffffffffffffffffffffffffffffffffffffffffffffff03821115610fe457610fe3610f6a565b5b828201905092915050565b6000610ffa82610bac565b91507fffffffffffffffffffffffffffffffffffffffffffffffffffffffffffffffff82141561102d5761102c610f6a565b5b600182019050919050565b7f4e487b7100000000000000000000000000000000000000000000000000000000600052603260045260246000fd5b7f4e487b7100000000000000000000000000000000000000000000000000000000600052602260045260246000fd5b600060028204905060018216806110ae57607f821691505b602082108114156110c2576110c1611067565b5b50919050565b7f64732d6d6174682d6164642d6f766572666c6f77000000000000000000000000600082015250565b60006110fe601483610cc6565b9150611109826110c8565b602082019050919050565b6000602082019050818103600083015261112d816110f1565b905091905056fea26469706673582212205443c67b9ab0f1dce03112e68a9e12972660e6ae93f63a06154bfcb4fcaf527664736f6c634300080b0033",
  "linkReferences": {},
  "deployedLinkReferences": {}
}