{
  "_format": "hh-sol-artifact-1",
  "contractName": "OwleeeForum",
  "sourceName": "contracts/OwleeeForum.sol",
  "abi": [
    {
      "anonymous": false,
      "inputs": [
        {
          "components": [
            {
              "internalType": "uint32",
              "name": "id",
              "type": "uint32"
            },
            {
              "internalType": "string",
              "name": "topic",
              "type": "string"
            },
            {
              "internalType": "address",
              "name": "creator_address",
              "type": "address"
            },
            {
              "internalType": "string",
              "name": "message",
              "type": "string"
            },
            {
              "internalType": "uint256",
              "name": "created_at",
              "type": "uint256"
            }
          ],
          "indexed": false,
          "internalType": "struct OwleeeForum.Comment",
          "name": "comment",
          "type": "tuple"
        }
      ],
      "name": "CommentAdded",
      "type": "event"
    },
    {
      "inputs": [
        {
          "internalType": "string",
          "name": "topic",
          "type": "string"
        },
        {
          "internalType": "string",
          "name": "message",
          "type": "string"
        }
      ],
      "name": "addComment",
      "outputs": [],
      "stateMutability": "nonpayable",
      "type": "function"
    },
    {
      "inputs": [
        {
          "internalType": "string",
          "name": "topic",
          "type": "string"
        }
      ],
      "name": "getComments",
      "outputs": [
        {
          "components": [
            {
              "internalType": "uint32",
              "name": "id",
              "type": "uint32"
            },
            {
              "internalType": "string",
              "name": "topic",
              "type": "string"
            },
            {
              "internalType": "address",
              "name": "creator_address",
              "type": "address"
            },
            {
              "internalType": "string",
              "name": "message",
              "type": "string"
            },
            {
              "internalType": "uint256",
              "name": "created_at",
              "type": "uint256"
            }
          ],
          "internalType": "struct OwleeeForum.Comment[]",
          "name": "",
          "type": "tuple[]"
        }
      ],
      "stateMutability": "view",
      "type": "function"
    }
  ],
  "bytecode": "0x608060405234801561001057600080fd5b50610b49806100206000396000f3fe608060405234801561001057600080fd5b50600436106100365760003560e01c806370c63fcc1461003b578063ae5ff9051461006b575b600080fd5b6100556004803603810190610050919061061e565b610087565b60405161006291906108bc565b60405180910390f35b610085600480360381019061008091906108de565b6102b1565b005b60606001838360405161009b92919061099e565b9081526020016040518091039020805480602002602001604051908101604052809291908181526020016000905b828210156102a557838290600052602060002090600502016040518060a00160405290816000820160009054906101000a900463ffffffff1663ffffffff1663ffffffff168152602001600182018054610122906109e6565b80601f016020809104026020016040519081016040528092919081815260200182805461014e906109e6565b801561019b5780601f106101705761010080835404028352916020019161019b565b820191906000526020600020905b81548152906001019060200180831161017e57829003601f168201915b505050505081526020016002820160009054906101000a900473ffffffffffffffffffffffffffffffffffffffff1673ffffffffffffffffffffffffffffffffffffffff1673ffffffffffffffffffffffffffffffffffffffff16815260200160038201805461020a906109e6565b80601f0160208091040260200160405190810160405280929190818152602001828054610236906109e6565b80156102835780601f1061025857610100808354040283529160200191610283565b820191906000526020600020905b81548152906001019060200180831161026657829003601f168201915b50505050508152602001600482015481525050815260200190600101906100c9565b50505050905092915050565b60006040518060a0016040528060008054906101000a900463ffffffff1663ffffffff16815260200186868080601f016020809104026020016040519081016040528093929190818152602001838380828437600081840152601f19601f8201169050808301925050505050505081526020013373ffffffffffffffffffffffffffffffffffffffff16815260200184848080601f016020809104026020016040519081016040528093929190818152602001838380828437600081840152601f19601f820116905080830192505050505050508152602001428152509050600185856040516103a292919061099e565b908152602001604051809103902081908060018154018082558091505060019003906000526020600020906005020160009091909190915060008201518160000160006101000a81548163ffffffff021916908363ffffffff160217905550602082015181600101908051906020019061041d92919061050c565b5060408201518160020160006101000a81548173ffffffffffffffffffffffffffffffffffffffff021916908373ffffffffffffffffffffffffffffffffffffffff160217905550606082015181600301908051906020019061048192919061050c565b5060808201518160040155505060008081819054906101000a900463ffffffff16809291906104af90610a47565b91906101000a81548163ffffffff021916908363ffffffff160217905550507fe77ab75f376cc3dcd9506272f00c91ec2ff78acb373dc7b53aedecb1da207022816040516104fd9190610af1565b60405180910390a15050505050565b828054610518906109e6565b90600052602060002090601f01602090048101928261053a5760008555610581565b82601f1061055357805160ff1916838001178555610581565b82800160010185558215610581579182015b82811115610580578251825591602001919060010190610565565b5b50905061058e9190610592565b5090565b5b808211156105ab576000816000905550600101610593565b5090565b600080fd5b600080fd5b600080fd5b600080fd5b600080fd5b60008083601f8401126105de576105dd6105b9565b5b8235905067ffffffffffffffff8111156105fb576105fa6105be565b5b602083019150836001820283011115610617576106166105c3565b5b9250929050565b60008060208385031215610635576106346105af565b5b600083013567ffffffffffffffff811115610653576106526105b4565b5b61065f858286016105c8565b92509250509250929050565b600081519050919050565b600082825260208201905092915050565b6000819050602082019050919050565b600063ffffffff82169050919050565b6106b081610697565b82525050565b600081519050919050565b600082825260208201905092915050565b60005b838110156106f05780820151818401526020810190506106d5565b838111156106ff576000848401525b50505050565b6000601f19601f8301169050919050565b6000610721826106b6565b61072b81856106c1565b935061073b8185602086016106d2565b61074481610705565b840191505092915050565b600073ffffffffffffffffffffffffffffffffffffffff82169050919050565b600061077a8261074f565b9050919050565b61078a8161076f565b82525050565b6000819050919050565b6107a381610790565b82525050565b600060a0830160008301516107c160008601826106a7565b50602083015184820360208601526107d98282610716565b91505060408301516107ee6040860182610781565b50606083015184820360608601526108068282610716565b915050608083015161081b608086018261079a565b508091505092915050565b600061083283836107a9565b905092915050565b6000602082019050919050565b60006108528261066b565b61085c8185610676565b93508360208202850161086e85610687565b8060005b858110156108aa578484038952815161088b8582610826565b94506108968361083a565b925060208a01995050600181019050610872565b50829750879550505050505092915050565b600060208201905081810360008301526108d68184610847565b905092915050565b600080600080604085870312156108f8576108f76105af565b5b600085013567ffffffffffffffff811115610916576109156105b4565b5b610922878288016105c8565b9450945050602085013567ffffffffffffffff811115610945576109446105b4565b5b610951878288016105c8565b925092505092959194509250565b600081905092915050565b82818337600083830152505050565b6000610985838561095f565b935061099283858461096a565b82840190509392505050565b60006109ab828486610979565b91508190509392505050565b7f4e487b7100000000000000000000000000000000000000000000000000000000600052602260045260246000fd5b600060028204905060018216806109fe57607f821691505b60208210811415610a1257610a116109b7565b5b50919050565b7f4e487b7100000000000000000000000000000000000000000000000000000000600052601160045260246000fd5b6000610a5282610697565b915063ffffffff821415610a6957610a68610a18565b5b600182019050919050565b600060a083016000830151610a8c60008601826106a7565b5060208301518482036020860152610aa48282610716565b9150506040830151610ab96040860182610781565b5060608301518482036060860152610ad18282610716565b9150506080830151610ae6608086018261079a565b508091505092915050565b60006020820190508181036000830152610b0b8184610a74565b90509291505056fea26469706673582212205e9ba23e05404a13bb149d190e5e1b0538dcf053f21ce57413fa265e6cf5030864736f6c634300080b0033",
  "linkReferences": {},
  "deployedLinkReferences": {}
}