{
  "_format": "hh-sol-artifact-1",
  "contractName": "OwleeeTip",
  "sourceName": "contracts/OwleeeTip.sol",
  "abi": [
    {
      "anonymous": false,
      "inputs": [
        {
          "indexed": false,
          "internalType": "uint256",
          "name": "amount",
          "type": "uint256"
        },
        {
          "indexed": false,
          "internalType": "address",
          "name": "creator",
          "type": "address"
        }
      ],
      "name": "TipReceived",
      "type": "event"
    },
    {
      "inputs": [
        {
          "internalType": "address",
          "name": "_creator",
          "type": "address"
        }
      ],
      "name": "sendTip",
      "outputs": [],
      "stateMutability": "payable",
      "type": "function"
    },
    {
      "inputs": [],
      "name": "totalTip",
      "outputs": [
        {
          "internalType": "uint256",
          "name": "",
          "type": "uint256"
        }
      ],
      "stateMutability": "view",
      "type": "function"
    }
  ],
  "bytecode": "0x608060405234801561001057600080fd5b5061052e806100206000396000f3fe6080604052600436106100295760003560e01c8063561cb04a1461002e578063a4e81be014610059575b600080fd5b34801561003a57600080fd5b50610043610075565b604051610050919061023b565b60405180910390f35b610073600480360381019061006e91906102b9565b61007b565b005b60005481565b600034116100be576040517f08c379a00000000000000000000000000000000000000000000000000000000081526004016100b590610343565b60405180910390fd5b343373ffffffffffffffffffffffffffffffffffffffff16311015610118576040517f08c379a000000000000000000000000000000000000000000000000000000000815260040161010f906103af565b60405180910390fd5b8073ffffffffffffffffffffffffffffffffffffffff163373ffffffffffffffffffffffffffffffffffffffff161415610187576040517f08c379a000000000000000000000000000000000000000000000000000000000815260040161017e9061041b565b60405180910390fd5b8073ffffffffffffffffffffffffffffffffffffffff166108fc349081150290604051600060405180830381858888f193505050501580156101cd573d6000803e3d6000fd5b50346000808282546101df919061046a565b925050819055507fc9744582970998c0a027dca0862cc1275bb99250a3a4665035c1a4b52acd691634826040516102179291906104cf565b60405180910390a150565b6000819050919050565b61023581610222565b82525050565b6000602082019050610250600083018461022c565b92915050565b600080fd5b600073ffffffffffffffffffffffffffffffffffffffff82169050919050565b60006102868261025b565b9050919050565b6102968161027b565b81146102a157600080fd5b50565b6000813590506102b38161028d565b92915050565b6000602082840312156102cf576102ce610256565b5b60006102dd848285016102a4565b91505092915050565b600082825260208201905092915050565b7f416d6f756e742073686f756c642062652067726561746572207468616e20302e600082015250565b600061032d6020836102e6565b9150610338826102f7565b602082019050919050565b6000602082019050818103600083015261035c81610320565b9050919050565b7f4e6f7420656e6f7567682062616c616e63650000000000000000000000000000600082015250565b60006103996012836102e6565b91506103a482610363565b602082019050919050565b600060208201905081810360008301526103c88161038c565b9050919050565b7f43726561746f722063616e206e6f7420636f6e74726962757465000000000000600082015250565b6000610405601a836102e6565b9150610410826103cf565b602082019050919050565b60006020820190508181036000830152610434816103f8565b9050919050565b7f4e487b7100000000000000000000000000000000000000000000000000000000600052601160045260246000fd5b600061047582610222565b915061048083610222565b9250827fffffffffffffffffffffffffffffffffffffffffffffffffffffffffffffffff038211156104b5576104b461043b565b5b828201905092915050565b6104c98161027b565b82525050565b60006040820190506104e4600083018561022c565b6104f160208301846104c0565b939250505056fea26469706673582212208aad6e8a6be6755d67986b91cb46014526f57724487f4f1697a1148c2ed193fc64736f6c634300080b0033",
  "linkReferences": {},
  "deployedLinkReferences": {}
}